{
  "contractName": "CropMarket",
  "abi": [
    {
      "inputs": [],
      "stateMutability": "nonpayable",
      "type": "constructor"
    },
    {
      "anonymous": false,
      "inputs": [
        {
          "indexed": false,
          "internalType": "uint256",
          "name": "id",
          "type": "uint256"
        },
        {
          "indexed": false,
          "internalType": "address",
          "name": "farmer",
          "type": "address"
        },
        {
          "indexed": false,
          "internalType": "string",
          "name": "name",
          "type": "string"
        },
        {
          "indexed": false,
          "internalType": "uint256",
          "name": "pricePerUnit",
          "type": "uint256"
        },
        {
          "indexed": false,
          "internalType": "uint256",
          "name": "quantity",
          "type": "uint256"
        }
      ],
      "name": "CropAdded",
      "type": "event"
    },
    {
      "anonymous": false,
      "inputs": [
        {
          "indexed": false,
          "internalType": "uint256",
          "name": "id",
          "type": "uint256"
        },
        {
          "indexed": false,
          "internalType": "address",
          "name": "consumer",
          "type": "address"
        },
        {
          "indexed": false,
          "internalType": "uint256",
          "name": "quantity",
          "type": "uint256"
        },
        {
          "indexed": false,
          "internalType": "uint256",
          "name": "totalPrice",
          "type": "uint256"
        }
      ],
      "name": "CropPurchased",
      "type": "event"
    },
    {
      "inputs": [
        {
          "internalType": "uint256",
          "name": "",
          "type": "uint256"
        }
      ],
      "name": "crops",
      "outputs": [
        {
          "internalType": "uint256",
          "name": "id",
          "type": "uint256"
        },
        {
          "internalType": "address",
          "name": "farmer",
          "type": "address"
        },
        {
          "internalType": "string",
          "name": "name",
          "type": "string"
        },
        {
          "internalType": "uint256",
          "name": "pricePerUnit",
          "type": "uint256"
        },
        {
          "internalType": "uint256",
          "name": "quantity",
          "type": "uint256"
        }
      ],
      "stateMutability": "view",
      "type": "function",
      "constant": true
    },
    {
      "inputs": [
        {
          "internalType": "address",
          "name": "",
          "type": "address"
        },
        {
          "internalType": "uint256",
          "name": "",
          "type": "uint256"
        }
      ],
      "name": "farmerCrops",
      "outputs": [
        {
          "internalType": "uint256",
          "name": "",
          "type": "uint256"
        }
      ],
      "stateMutability": "view",
      "type": "function",
      "constant": true
    },
    {
      "inputs": [],
      "name": "owner",
      "outputs": [
        {
          "internalType": "address",
          "name": "",
          "type": "address"
        }
      ],
      "stateMutability": "view",
      "type": "function",
      "constant": true
    },
    {
      "inputs": [
        {
          "internalType": "string",
          "name": "_name",
          "type": "string"
        },
        {
          "internalType": "uint256",
          "name": "_pricePerUnit",
          "type": "uint256"
        },
        {
          "internalType": "uint256",
          "name": "_quantity",
          "type": "uint256"
        }
      ],
      "name": "addCrop",
      "outputs": [],
      "stateMutability": "nonpayable",
      "type": "function"
    },
    {
      "inputs": [
        {
          "internalType": "uint256",
          "name": "_id",
          "type": "uint256"
        },
        {
          "internalType": "uint256",
          "name": "_quantity",
          "type": "uint256"
        }
      ],
      "name": "buyCrop",
      "outputs": [],
      "stateMutability": "payable",
      "type": "function",
      "payable": true
    },
    {
      "inputs": [
        {
          "internalType": "uint256",
          "name": "_id",
          "type": "uint256"
        }
      ],
      "name": "getCrop",
      "outputs": [
        {
          "internalType": "uint256",
          "name": "",
          "type": "uint256"
        },
        {
          "internalType": "address",
          "name": "",
          "type": "address"
        },
        {
          "internalType": "string",
          "name": "",
          "type": "string"
        },
        {
          "internalType": "uint256",
          "name": "",
          "type": "uint256"
        },
        {
          "internalType": "uint256",
          "name": "",
          "type": "uint256"
        }
      ],
      "stateMutability": "view",
      "type": "function",
      "constant": true
    },
    {
      "inputs": [],
      "name": "getTotalCrops",
      "outputs": [
        {
          "internalType": "uint256",
          "name": "",
          "type": "uint256"
        }
      ],
      "stateMutability": "view",
      "type": "function",
      "constant": true
    },
    {
      "inputs": [],
      "name": "withdrawFunds",
      "outputs": [],
      "stateMutability": "nonpayable",
      "type": "function"
    },
    {
      "inputs": [],
      "name": "withdraw",
      "outputs": [],
      "stateMutability": "nonpayable",
      "type": "function"
    }
  ],
  "bytecode": "0x608060405234801561000f575f80fd5b50335f806101000a81548173ffffffffffffffffffffffffffffffffffffffff021916908373ffffffffffffffffffffffffffffffffffffffff1602179055506114998061005c5f395ff3fe608060405260043610610085575f3560e01c80636c662918116100585780636c6629181461011b57806370c9f1a5146101435780638bc7fa9c146101835780638da5cb5b146101c3578063a086dd88146101ed57610085565b806312b79636146100895780631af683ec146100c557806324600fc3146100ef5780633ccfd60b14610105575b5f80fd5b348015610094575f80fd5b506100af60048036038101906100aa9190610ad8565b610209565b6040516100bc9190610b25565b60405180910390f35b3480156100d0575f80fd5b506100d9610234565b6040516100e69190610b25565b60405180910390f35b3480156100fa575f80fd5b50610103610240565b005b348015610110575f80fd5b506101196103cb565b005b348015610126575f80fd5b50610141600480360381019061013c9190610c7a565b6104bd565b005b34801561014e575f80fd5b5061016960048036038101906101649190610ce6565b61064b565b60405161017a959493929190610d9a565b60405180910390f35b34801561018e575f80fd5b506101a960048036038101906101a49190610ce6565b610731565b6040516101ba959493929190610d9a565b60405180910390f35b3480156101ce575f80fd5b506101d7610893565b6040516101e49190610df2565b60405180910390f35b61020760048036038101906102029190610e0b565b6108b6565b005b6001602052815f5260405f208181548110610222575f80fd5b905f5260205f20015f91509150505481565b5f600280549050905090565b5f8060015f3373ffffffffffffffffffffffffffffffffffffffff1673ffffffffffffffffffffffffffffffffffffffff1681526020019081526020015f2090505f5b8180549050811015610340575f8282815481106102a3576102a2610e49565b5b905f5260205f20015490505f600282815481106102c3576102c2610e49565b5b905f5260205f20906005020190505f81600401548260040154106102eb5781600401546102f1565b81600401545b90508082600301546103039190610ea3565b8661030e9190610ee4565b955080826004015f8282546103239190610f17565b92505081905550505050808061033890610f4a565b915050610283565b505f8211610383576040517f08c379a000000000000000000000000000000000000000000000000000000000815260040161037a90610fdb565b60405180910390fd5b3373ffffffffffffffffffffffffffffffffffffffff166108fc8390811502906040515f60405180830381858888f193505050501580156103c6573d5f803e3d5ffd5b505050565b5f8054906101000a900473ffffffffffffffffffffffffffffffffffffffff1673ffffffffffffffffffffffffffffffffffffffff163373ffffffffffffffffffffffffffffffffffffffff1614610458576040517f08c379a000000000000000000000000000000000000000000000000000000000815260040161044f90611069565b60405180910390fd5b5f8054906101000a900473ffffffffffffffffffffffffffffffffffffffff1673ffffffffffffffffffffffffffffffffffffffff166108fc4790811502906040515f60405180830381858888f193505050501580156104ba573d5f803e3d5ffd5b50565b5f600280549050905060026040518060a001604052808381526020013373ffffffffffffffffffffffffffffffffffffffff16815260200186815260200185815260200184815250908060018154018082558091505060019003905f5260205f2090600502015f909190919091505f820151815f01556020820151816001015f6101000a81548173ffffffffffffffffffffffffffffffffffffffff021916908373ffffffffffffffffffffffffffffffffffffffff160217905550604082015181600201908161058e9190611281565b506060820151816003015560808201518160040155505060015f3373ffffffffffffffffffffffffffffffffffffffff1673ffffffffffffffffffffffffffffffffffffffff1681526020019081526020015f2081908060018154018082558091505060019003905f5260205f20015f90919091909150557ffaf12363e889b6c79220403feb8778e2bbe306151eda8f1404e25e26eb1ea8b2813386868660405161063d959493929190610d9a565b60405180910390a150505050565b6002818154811061065a575f80fd5b905f5260205f2090600502015f91509050805f015490806001015f9054906101000a900473ffffffffffffffffffffffffffffffffffffffff16908060020180546106a4906110b4565b80601f01602080910402602001604051908101604052809291908181526020018280546106d0906110b4565b801561071b5780601f106106f25761010080835404028352916020019161071b565b820191905f5260205f20905b8154815290600101906020018083116106fe57829003601f168201915b5050505050908060030154908060040154905085565b5f8060605f805f6002878154811061074c5761074b610e49565b5b905f5260205f2090600502016040518060a00160405290815f8201548152602001600182015f9054906101000a900473ffffffffffffffffffffffffffffffffffffffff1673ffffffffffffffffffffffffffffffffffffffff1673ffffffffffffffffffffffffffffffffffffffff1681526020016002820180546107d1906110b4565b80601f01602080910402602001604051908101604052809291908181526020018280546107fd906110b4565b80156108485780601f1061081f57610100808354040283529160200191610848565b820191905f5260205f20905b81548152906001019060200180831161082b57829003601f168201915b50505050508152602001600382015481526020016004820154815250509050805f01518160200151826040015183606001518460800151955095509550955095505091939590929450565b5f8054906101000a900473ffffffffffffffffffffffffffffffffffffffff1681565b5f600283815481106108cb576108ca610e49565b5b905f5260205f20906005020190508181600401541015610920576040517f08c379a00000000000000000000000000000000000000000000000000000000081526004016109179061139a565b60405180910390fd5b5f8282600301546109319190610ea3565b905080341015610976576040517f08c379a000000000000000000000000000000000000000000000000000000000815260040161096d90611402565b60405180910390fd5b82826004015f8282546109899190610f17565b92505081905550816001015f9054906101000a900473ffffffffffffffffffffffffffffffffffffffff1673ffffffffffffffffffffffffffffffffffffffff166108fc8290811502906040515f60405180830381858888f193505050501580156109f6573d5f803e3d5ffd5b507f0a4352b1d4903ed52cfab309159e5f76ba15237a9c58444bb4b875a873c713f584338584604051610a2c9493929190611420565b60405180910390a150505050565b5f604051905090565b5f80fd5b5f80fd5b5f73ffffffffffffffffffffffffffffffffffffffff82169050919050565b5f610a7482610a4b565b9050919050565b610a8481610a6a565b8114610a8e575f80fd5b50565b5f81359050610a9f81610a7b565b92915050565b5f819050919050565b610ab781610aa5565b8114610ac1575f80fd5b50565b5f81359050610ad281610aae565b92915050565b5f8060408385031215610aee57610aed610a43565b5b5f610afb85828601610a91565b9250506020610b0c85828601610ac4565b9150509250929050565b610b1f81610aa5565b82525050565b5f602082019050610b385f830184610b16565b92915050565b5f80fd5b5f80fd5b5f601f19601f8301169050919050565b7f4e487b71000000000000000000000000000000000000000000000000000000005f52604160045260245ffd5b610b8c82610b46565b810181811067ffffffffffffffff82111715610bab57610baa610b56565b5b80604052505050565b5f610bbd610a3a565b9050610bc98282610b83565b919050565b5f67ffffffffffffffff821115610be857610be7610b56565b5b610bf182610b46565b9050602081019050919050565b828183375f83830152505050565b5f610c1e610c1984610bce565b610bb4565b905082815260208101848484011115610c3a57610c39610b42565b5b610c45848285610bfe565b509392505050565b5f82601f830112610c6157610c60610b3e565b5b8135610c71848260208601610c0c565b91505092915050565b5f805f60608486031215610c9157610c90610a43565b5b5f84013567ffffffffffffffff811115610cae57610cad610a47565b5b610cba86828701610c4d565b9350506020610ccb86828701610ac4565b9250506040610cdc86828701610ac4565b9150509250925092565b5f60208284031215610cfb57610cfa610a43565b5b5f610d0884828501610ac4565b91505092915050565b610d1a81610a6a565b82525050565b5f81519050919050565b5f82825260208201905092915050565b5f5b83811015610d57578082015181840152602081019050610d3c565b5f8484015250505050565b5f610d6c82610d20565b610d768185610d2a565b9350610d86818560208601610d3a565b610d8f81610b46565b840191505092915050565b5f60a082019050610dad5f830188610b16565b610dba6020830187610d11565b8181036040830152610dcc8186610d62565b9050610ddb6060830185610b16565b610de86080830184610b16565b9695505050505050565b5f602082019050610e055f830184610d11565b92915050565b5f8060408385031215610e2157610e20610a43565b5b5f610e2e85828601610ac4565b9250506020610e3f85828601610ac4565b9150509250929050565b7f4e487b71000000000000000000000000000000000000000000000000000000005f52603260045260245ffd5b7f4e487b71000000000000000000000000000000000000000000000000000000005f52601160045260245ffd5b5f610ead82610aa5565b9150610eb883610aa5565b9250828202610ec681610aa5565b91508282048414831517610edd57610edc610e76565b5b5092915050565b5f610eee82610aa5565b9150610ef983610aa5565b9250828201905080821115610f1157610f10610e76565b5b92915050565b5f610f2182610aa5565b9150610f2c83610aa5565b9250828203905081811115610f4457610f43610e76565b5b92915050565b5f610f5482610aa5565b91507fffffffffffffffffffffffffffffffffffffffffffffffffffffffffffffffff8203610f8657610f85610e76565b5b600182019050919050565b7f4e6f2066756e647320746f2077697468647261770000000000000000000000005f82015250565b5f610fc5601483610d2a565b9150610fd082610f91565b602082019050919050565b5f6020820190508181035f830152610ff281610fb9565b9050919050565b7f4f6e6c79206f776e65722063616e2063616c6c20746869732066756e6374696f5f8201527f6e00000000000000000000000000000000000000000000000000000000000000602082015250565b5f611053602183610d2a565b915061105e82610ff9565b604082019050919050565b5f6020820190508181035f83015261108081611047565b9050919050565b7f4e487b71000000000000000000000000000000000000000000000000000000005f52602260045260245ffd5b5f60028204905060018216806110cb57607f821691505b6020821081036110de576110dd611087565b5b50919050565b5f819050815f5260205f209050919050565b5f6020601f8301049050919050565b5f82821b905092915050565b5f600883026111407fffffffffffffffffffffffffffffffffffffffffffffffffffffffffffffffff82611105565b61114a8683611105565b95508019841693508086168417925050509392505050565b5f819050919050565b5f61118561118061117b84610aa5565b611162565b610aa5565b9050919050565b5f819050919050565b61119e8361116b565b6111b26111aa8261118c565b848454611111565b825550505050565b5f90565b6111c66111ba565b6111d1818484611195565b505050565b5b818110156111f4576111e95f826111be565b6001810190506111d7565b5050565b601f8211156112395761120a816110e4565b611213846110f6565b81016020851015611222578190505b61123661122e856110f6565b8301826111d6565b50505b505050565b5f82821c905092915050565b5f6112595f198460080261123e565b1980831691505092915050565b5f611271838361124a565b9150826002028217905092915050565b61128a82610d20565b67ffffffffffffffff8111156112a3576112a2610b56565b5b6112ad82546110b4565b6112b88282856111f8565b5f60209050601f8311600181146112e9575f84156112d7578287015190505b6112e18582611266565b865550611348565b601f1984166112f7866110e4565b5f5b8281101561131e578489015182556001820191506020850194506020810190506112f9565b8683101561133b5784890151611337601f89168261124a565b8355505b6001600288020188555050505b505050505050565b7f496e73756666696369656e74207175616e7469747920617661696c61626c65005f82015250565b5f611384601f83610d2a565b915061138f82611350565b602082019050919050565b5f6020820190508181035f8301526113b181611378565b9050919050565b7f496e73756666696369656e742066756e647300000000000000000000000000005f82015250565b5f6113ec601283610d2a565b91506113f7826113b8565b602082019050919050565b5f6020820190508181035f830152611419816113e0565b9050919050565b5f6080820190506114335f830187610b16565b6114406020830186610d11565b61144d6040830185610b16565b61145a6060830184610b16565b9594505050505056fea26469706673582212207d029ae5cba22e2e0cc86073d9bc9e4384a3bee768d16c0b66b8ac4b5ab3e0ea64736f6c63430008150033",
  "immutableReferences": {},
  "source": "// SPDX-License-Identifier: MIT\r\npragma solidity ^0.8.0;\r\n\r\ncontract CropMarket {\r\n    address public owner;\r\n\r\n    // Struct to represent a crop\r\n    struct Crop {\r\n        uint256 id;\r\n        address farmer;\r\n        string name;\r\n        uint256 pricePerUnit; // Price per unit of the crop\r\n        uint256 quantity; // Total quantity of the crop available\r\n    }\r\n\r\n    // Mapping to store crops deployed by each farmer\r\n    mapping(address => uint256[]) public farmerCrops;\r\n\r\n    // Array to store all crops\r\n    Crop[] public crops;\r\n\r\n    // Event to emit when a crop is added to the market\r\n    event CropAdded(uint256 id, address farmer, string name, uint256 pricePerUnit, uint256 quantity);\r\n\r\n    // Event to emit when a crop is purchased\r\n    event CropPurchased(uint256 id, address consumer, uint256 quantity, uint256 totalPrice);\r\n\r\n    // Modifier to ensure only the contract owner can perform certain actions\r\n    modifier onlyOwner() {\r\n        require(msg.sender == owner, \"Only owner can call this function\");\r\n        _;\r\n    }\r\n\r\n    constructor() {\r\n        owner = msg.sender;\r\n    }\r\n\r\n    // Function for the farmer to add a crop to the market\r\n    function addCrop(string memory _name, uint256 _pricePerUnit, uint256 _quantity) external {\r\n        uint256 id = crops.length;\r\n        crops.push(Crop(id, msg.sender, _name, _pricePerUnit, _quantity));\r\n        farmerCrops[msg.sender].push(id); // Add the crop to the list of crops for the farmer\r\n        emit CropAdded(id, msg.sender, _name, _pricePerUnit, _quantity);\r\n    }\r\n\r\n    // Function for the consumer to purchase a crop\r\n    function buyCrop(uint256 _id, uint256 _quantity) external payable {\r\n        Crop storage crop = crops[_id];\r\n        require(crop.quantity >= _quantity, \"Insufficient quantity available\");\r\n        uint256 totalPrice = crop.pricePerUnit * _quantity; // Calculate total price\r\n        require(msg.value >= totalPrice, \"Insufficient funds\");\r\n\r\n        crop.quantity -= _quantity; // Reduce the quantity of available crop\r\n        payable(crop.farmer).transfer(totalPrice); // Transfer funds to the farmer\r\n\r\n        emit CropPurchased(_id, msg.sender, _quantity, totalPrice);\r\n    }\r\n\r\n    // Function to get the details of a crop\r\n    function getCrop(uint256 _id) external view returns (uint256, address, string memory, uint256, uint256) {\r\n        Crop memory crop = crops[_id];\r\n        return (crop.id, crop.farmer, crop.name, crop.pricePerUnit, crop.quantity);\r\n    }\r\n\r\n    // Function to get the total number of crops in the market\r\n    function getTotalCrops() external view returns (uint256) {\r\n        return crops.length;\r\n    }\r\n\r\n    // Function for a farmer to withdraw their funds for their crops\r\n    function withdrawFunds() external {\r\n        uint256 totalAmount = 0;\r\n        uint256[] storage farmerCropIds = farmerCrops[msg.sender];\r\n        for (uint256 i = 0; i < farmerCropIds.length; i++) {\r\n            uint256 cropId = farmerCropIds[i];\r\n            Crop storage crop = crops[cropId];\r\n            uint256 soldQuantity = crop.quantity < crop.quantity ? crop.quantity : crop.quantity; // Calculate the sold quantity\r\n            totalAmount += crop.pricePerUnit * soldQuantity;\r\n            crop.quantity -= soldQuantity; // Mark the sold quantity as unavailable\r\n        }\r\n        require(totalAmount > 0, \"No funds to withdraw\");\r\n\r\n        payable(msg.sender).transfer(totalAmount);\r\n    }\r\n\r\n    // Function to withdraw contract balance\r\n    function withdraw() external onlyOwner {\r\n        payable(owner).transfer(address(this).balance);\r\n    }\r\n}\r\n",
  "sourcePath": "D:\\BLOCKCHAIN\\Demo44\\contracts\\Crop.sol",
  "compiler": {
    "name": "solc",
    "version": "0.8.21+commit.d9974bed.Emscripten.clang"
  },
  "schemaVersion": "3.4.16",
  "updatedAt": "2024-02-13T09:48:46.362Z",
  "networkType": "ethereum",
  "devdoc": {
    "kind": "dev",
    "methods": {},
    "version": 1
  },
  "userdoc": {
    "kind": "user",
    "methods": {},
    "version": 1
  }
}